{
  "_format": "hh3-artifact-1",
  "contractName": "ComputeMarket",
  "sourceName": "contracts/ComputeMarket.sol",
  "abi": [
    {
      "inputs": [],
      "stateMutability": "nonpayable",
      "type": "constructor"
    },
    {
      "inputs": [],
      "name": "InsufficientPayment",
      "type": "error"
    },
    {
      "inputs": [],
      "name": "InvalidAddress",
      "type": "error"
    },
    {
      "inputs": [],
      "name": "InvalidPrice",
      "type": "error"
    },
    {
      "inputs": [],
      "name": "InvalidTaskStatus",
      "type": "error"
    },
    {
      "inputs": [],
      "name": "NotAdmin",
      "type": "error"
    },
    {
      "inputs": [],
      "name": "ServiceAlreadyExists",
      "type": "error"
    },
    {
      "inputs": [],
      "name": "ServiceNotActive",
      "type": "error"
    },
    {
      "inputs": [],
      "name": "TaskNotExists",
      "type": "error"
    },
    {
      "inputs": [],
      "name": "TransferFailed",
      "type": "error"
    },
    {
      "anonymous": false,
      "inputs": [
        {
          "indexed": true,
          "internalType": "uint256",
          "name": "serviceId",
          "type": "uint256"
        },
        {
          "indexed": false,
          "internalType": "uint256",
          "name": "price",
          "type": "uint256"
        },
        {
          "indexed": true,
          "internalType": "address",
          "name": "registrant",
          "type": "address"
        }
      ],
      "name": "ServiceRegistered",
      "type": "event"
    },
    {
      "anonymous": false,
      "inputs": [
        {
          "indexed": true,
          "internalType": "uint256",
          "name": "taskId",
          "type": "uint256"
        },
        {
          "indexed": true,
          "internalType": "uint256",
          "name": "serviceId",
          "type": "uint256"
        },
        {
          "indexed": true,
          "internalType": "address",
          "name": "buyer",
          "type": "address"
        },
        {
          "indexed": false,
          "internalType": "string",
          "name": "resultHash",
          "type": "string"
        },
        {
          "indexed": false,
          "internalType": "uint256",
          "name": "timestamp",
          "type": "uint256"
        }
      ],
      "name": "TaskCompleted",
      "type": "event"
    },
    {
      "anonymous": false,
      "inputs": [
        {
          "indexed": true,
          "internalType": "uint256",
          "name": "taskId",
          "type": "uint256"
        },
        {
          "indexed": true,
          "internalType": "uint256",
          "name": "serviceId",
          "type": "uint256"
        },
        {
          "indexed": true,
          "internalType": "address",
          "name": "buyer",
          "type": "address"
        },
        {
          "indexed": false,
          "internalType": "uint256",
          "name": "amount",
          "type": "uint256"
        },
        {
          "indexed": false,
          "internalType": "uint256",
          "name": "timestamp",
          "type": "uint256"
        }
      ],
      "name": "TaskCreated",
      "type": "event"
    },
    {
      "anonymous": false,
      "inputs": [
        {
          "indexed": true,
          "internalType": "uint256",
          "name": "taskId",
          "type": "uint256"
        },
        {
          "indexed": true,
          "internalType": "uint256",
          "name": "serviceId",
          "type": "uint256"
        },
        {
          "indexed": true,
          "internalType": "address",
          "name": "buyer",
          "type": "address"
        },
        {
          "indexed": false,
          "internalType": "uint256",
          "name": "amount",
          "type": "uint256"
        },
        {
          "indexed": false,
          "internalType": "uint256",
          "name": "timestamp",
          "type": "uint256"
        }
      ],
      "name": "TaskRefunded",
      "type": "event"
    },
    {
      "inputs": [],
      "name": "admin",
      "outputs": [
        {
          "internalType": "address",
          "name": "",
          "type": "address"
        }
      ],
      "stateMutability": "view",
      "type": "function"
    },
    {
      "inputs": [
        {
          "internalType": "uint256",
          "name": "serviceId",
          "type": "uint256"
        }
      ],
      "name": "buyCompute",
      "outputs": [],
      "stateMutability": "payable",
      "type": "function"
    },
    {
      "inputs": [
        {
          "internalType": "uint256",
          "name": "taskId",
          "type": "uint256"
        },
        {
          "internalType": "string",
          "name": "resultHash",
          "type": "string"
        }
      ],
      "name": "completeTask",
      "outputs": [],
      "stateMutability": "nonpayable",
      "type": "function"
    },
    {
      "inputs": [
        {
          "internalType": "uint256",
          "name": "serviceId",
          "type": "uint256"
        }
      ],
      "name": "deactivateService",
      "outputs": [],
      "stateMutability": "nonpayable",
      "type": "function"
    },
    {
      "inputs": [],
      "name": "getBalance",
      "outputs": [
        {
          "internalType": "uint256",
          "name": "",
          "type": "uint256"
        }
      ],
      "stateMutability": "view",
      "type": "function"
    },
    {
      "inputs": [
        {
          "internalType": "uint256",
          "name": "serviceId",
          "type": "uint256"
        }
      ],
      "name": "getService",
      "outputs": [
        {
          "components": [
            {
              "internalType": "uint128",
              "name": "serviceId",
              "type": "uint128"
            },
            {
              "internalType": "uint128",
              "name": "price",
              "type": "uint128"
            },
            {
              "internalType": "bool",
              "name": "active",
              "type": "bool"
            }
          ],
          "internalType": "struct ComputeMarket.Service",
          "name": "",
          "type": "tuple"
        }
      ],
      "stateMutability": "view",
      "type": "function"
    },
    {
      "inputs": [
        {
          "internalType": "uint256",
          "name": "taskId",
          "type": "uint256"
        }
      ],
      "name": "getTask",
      "outputs": [
        {
          "components": [
            {
              "internalType": "uint128",
              "name": "taskId",
              "type": "uint128"
            },
            {
              "internalType": "uint128",
              "name": "serviceId",
              "type": "uint128"
            },
            {
              "internalType": "address",
              "name": "buyer",
              "type": "address"
            },
            {
              "internalType": "uint96",
              "name": "amount",
              "type": "uint96"
            },
            {
              "internalType": "enum ComputeMarket.TaskStatus",
              "name": "status",
              "type": "uint8"
            },
            {
              "internalType": "uint32",
              "name": "createdAt",
              "type": "uint32"
            },
            {
              "internalType": "uint32",
              "name": "completedAt",
              "type": "uint32"
            }
          ],
          "internalType": "struct ComputeMarket.Task",
          "name": "task",
          "type": "tuple"
        },
        {
          "internalType": "string",
          "name": "resultHash",
          "type": "string"
        }
      ],
      "stateMutability": "view",
      "type": "function"
    },
    {
      "inputs": [],
      "name": "getTaskCount",
      "outputs": [
        {
          "internalType": "uint256",
          "name": "",
          "type": "uint256"
        }
      ],
      "stateMutability": "view",
      "type": "function"
    },
    {
      "inputs": [
        {
          "internalType": "uint256",
          "name": "taskId",
          "type": "uint256"
        }
      ],
      "name": "getTaskResultHash",
      "outputs": [
        {
          "internalType": "string",
          "name": "",
          "type": "string"
        }
      ],
      "stateMutability": "view",
      "type": "function"
    },
    {
      "inputs": [
        {
          "internalType": "uint256",
          "name": "taskId",
          "type": "uint256"
        }
      ],
      "name": "refundTask",
      "outputs": [],
      "stateMutability": "nonpayable",
      "type": "function"
    },
    {
      "inputs": [
        {
          "internalType": "uint256",
          "name": "serviceId",
          "type": "uint256"
        },
        {
          "internalType": "uint256",
          "name": "price",
          "type": "uint256"
        }
      ],
      "name": "registerService",
      "outputs": [],
      "stateMutability": "nonpayable",
      "type": "function"
    },
    {
      "inputs": [
        {
          "internalType": "uint256",
          "name": "",
          "type": "uint256"
        }
      ],
      "name": "services",
      "outputs": [
        {
          "internalType": "uint128",
          "name": "serviceId",
          "type": "uint128"
        },
        {
          "internalType": "uint128",
          "name": "price",
          "type": "uint128"
        },
        {
          "internalType": "bool",
          "name": "active",
          "type": "bool"
        }
      ],
      "stateMutability": "view",
      "type": "function"
    },
    {
      "inputs": [
        {
          "internalType": "uint256",
          "name": "taskId",
          "type": "uint256"
        }
      ],
      "name": "startTask",
      "outputs": [],
      "stateMutability": "nonpayable",
      "type": "function"
    },
    {
      "inputs": [
        {
          "internalType": "uint256",
          "name": "",
          "type": "uint256"
        }
      ],
      "name": "tasks",
      "outputs": [
        {
          "internalType": "uint128",
          "name": "taskId",
          "type": "uint128"
        },
        {
          "internalType": "uint128",
          "name": "serviceId",
          "type": "uint128"
        },
        {
          "internalType": "address",
          "name": "buyer",
          "type": "address"
        },
        {
          "internalType": "uint96",
          "name": "amount",
          "type": "uint96"
        },
        {
          "internalType": "enum ComputeMarket.TaskStatus",
          "name": "status",
          "type": "uint8"
        },
        {
          "internalType": "uint32",
          "name": "createdAt",
          "type": "uint32"
        },
        {
          "internalType": "uint32",
          "name": "completedAt",
          "type": "uint32"
        }
      ],
      "stateMutability": "view",
      "type": "function"
    },
    {
      "inputs": [
        {
          "internalType": "address",
          "name": "newAdmin",
          "type": "address"
        }
      ],
      "name": "transferAdmin",
      "outputs": [],
      "stateMutability": "nonpayable",
      "type": "function"
    },
    {
      "inputs": [
        {
          "internalType": "uint256",
          "name": "serviceId",
          "type": "uint256"
        },
        {
          "internalType": "uint256",
          "name": "newPrice",
          "type": "uint256"
        }
      ],
      "name": "updateServicePrice",
      "outputs": [],
      "stateMutability": "nonpayable",
      "type": "function"
    }
  ],
  "bytecode": "0x6080604052348015600e575f5ffd5b50335f5f6101000a81548173ffffffffffffffffffffffffffffffffffffffff021916908373ffffffffffffffffffffffffffffffffffffffff16021790555061271e8061005b5f395ff3fe6080604052600436106100f2575f3560e01c80638d97767211610089578063df8a0bfb11610058578063df8a0bfb14610313578063ec9c32121461034f578063ef0e239b14610377578063f851a440146103b3576100f2565b80638d977672146102415780639fd8093414610283578063c17a340e146102ab578063c22c4f43146102d5576100f2565b8063642c7dd4116100c5578063642c7dd4146101ad57806374aaa760146101c957806375829def146101f1578063773ab5a914610219576100f2565b806312065fe0146100f65780631d65e77e14610120578063286774361461015d5780635f94432614610185575b5f5ffd5b348015610101575f5ffd5b5061010a6103dd565b6040516101179190611d04565b60405180910390f35b34801561012b575f5ffd5b5061014660048036038101906101419190611d4f565b6103e4565b604051610154929190611f96565b60405180910390f35b348015610168575f5ffd5b50610183600480360381019061017e9190611d4f565b610655565b005b348015610190575f5ffd5b506101ab60048036038101906101a69190611d4f565b6109bd565b005b6101c760048036038101906101c29190611d4f565b610b6e565b005b3480156101d4575f5ffd5b506101ef60048036038101906101ea9190612026565b610f70565b005b3480156101fc575f5ffd5b50610217600480360381019061021291906120ad565b611336565b005b348015610224575f5ffd5b5061023f600480360381019061023a91906120d8565b611462565b005b34801561024c575f5ffd5b5061026760048036038101906102629190611d4f565b6116b9565b60405161027a9796959493929190612161565b60405180910390f35b34801561028e575f5ffd5b506102a960048036038101906102a491906120d8565b611790565b005b3480156102b6575f5ffd5b506102bf6118f4565b6040516102cc9190611d04565b60405180910390f35b3480156102e0575f5ffd5b506102fb60048036038101906102f69190611d4f565b6118fd565b60405161030a939291906121e8565b60405180910390f35b34801561031e575f5ffd5b5061033960048036038101906103349190611d4f565b611965565b604051610346919061221d565b60405180910390f35b34801561035a575f5ffd5b5061037560048036038101906103709190611d4f565b611a06565b005b348015610382575f5ffd5b5061039d60048036038101906103989190611d4f565b611b12565b6040516103aa919061228c565b60405180910390f35b3480156103be575f5ffd5b506103c7611be8565b6040516103d491906122a5565b60405180910390f35b5f47905090565b6103ec611c0c565b606060025f8481526020019081526020015f206040518060e00160405290815f82015f9054906101000a90046fffffffffffffffffffffffffffffffff166fffffffffffffffffffffffffffffffff166fffffffffffffffffffffffffffffffff1681526020015f820160109054906101000a90046fffffffffffffffffffffffffffffffff166fffffffffffffffffffffffffffffffff166fffffffffffffffffffffffffffffffff168152602001600182015f9054906101000a900473ffffffffffffffffffffffffffffffffffffffff1673ffffffffffffffffffffffffffffffffffffffff1673ffffffffffffffffffffffffffffffffffffffff1681526020016001820160149054906101000a90046bffffffffffffffffffffffff166bffffffffffffffffffffffff166bffffffffffffffffffffffff168152602001600282015f9054906101000a900460ff16600381111561055257610551611e09565b5b600381111561056457610563611e09565b5b81526020016002820160019054906101000a900463ffffffff1663ffffffff1663ffffffff1681526020016002820160059054906101000a900463ffffffff1663ffffffff1663ffffffff1681525050915060035f8481526020019081526020015f2080546105d2906122eb565b80601f01602080910402602001604051908101604052809291908181526020018280546105fe906122eb565b80156106495780601f1061062057610100808354040283529160200191610649565b820191905f5260205f20905b81548152906001019060200180831161062c57829003601f168201915b50505050509050915091565b5f5f9054906101000a900473ffffffffffffffffffffffffffffffffffffffff1673ffffffffffffffffffffffffffffffffffffffff163373ffffffffffffffffffffffffffffffffffffffff16146106da576040517f7bfa4b9f00000000000000000000000000000000000000000000000000000000815260040160405180910390fd5b805f60025f8381526020019081526020015f205f015f9054906101000a90046fffffffffffffffffffffffffffffffff166fffffffffffffffffffffffffffffffff1603610754576040517f0ef3650e00000000000000000000000000000000000000000000000000000000815260040160405180910390fd5b5f60025f8481526020019081526020015f2090505f816002015f9054906101000a900460ff1690505f600381111561078f5761078e611e09565b5b8160038111156107a2576107a1611e09565b5b141580156107d55750600160038111156107bf576107be611e09565b5b8160038111156107d2576107d1611e09565b5b14155b1561080c576040517f0988e48000000000000000000000000000000000000000000000000000000000815260040160405180910390fd5b5f8260010160149054906101000a90046bffffffffffffffffffffffff1690505f836001015f9054906101000a900473ffffffffffffffffffffffffffffffffffffffff1690505f845f0160109054906101000a90046fffffffffffffffffffffffffffffffff1690506003856002015f6101000a81548160ff0219169083600381111561089d5761089c611e09565b5b02179055505f8273ffffffffffffffffffffffffffffffffffffffff16846bffffffffffffffffffffffff166040516108d590612348565b5f6040518083038185875af1925050503d805f811461090f576040519150601f19603f3d011682016040523d82523d5f602084013e610914565b606091505b505090508061094f576040517f90b8ec1800000000000000000000000000000000000000000000000000000000815260040160405180910390fd5b8273ffffffffffffffffffffffffffffffffffffffff16826fffffffffffffffffffffffffffffffff16897f30c27484046710f1948b279ccb3d025da6a2d309abe0e2c814dc4da3a6f36f1b87426040516109ab929190612395565b60405180910390a45050505050505050565b5f5f9054906101000a900473ffffffffffffffffffffffffffffffffffffffff1673ffffffffffffffffffffffffffffffffffffffff163373ffffffffffffffffffffffffffffffffffffffff1614610a42576040517f7bfa4b9f00000000000000000000000000000000000000000000000000000000815260040160405180910390fd5b805f60025f8381526020019081526020015f205f015f9054906101000a90046fffffffffffffffffffffffffffffffff166fffffffffffffffffffffffffffffffff1603610abc576040517f0ef3650e00000000000000000000000000000000000000000000000000000000815260040160405180910390fd5b5f60025f8481526020019081526020015f2090505f6003811115610ae357610ae2611e09565b5b816002015f9054906101000a900460ff166003811115610b0657610b05611e09565b5b14610b3d576040517f0988e48000000000000000000000000000000000000000000000000000000000815260040160405180910390fd5b6001816002015f6101000a81548160ff02191690836003811115610b6457610b63611e09565b5b0217905550505050565b8060045f8281526020019081526020015f206001015f9054906101000a900460ff16610bc6576040517f090f768900000000000000000000000000000000000000000000000000000000815260040160405180910390fd5b5f60045f8481526020019081526020015f206040518060600160405290815f82015f9054906101000a90046fffffffffffffffffffffffffffffffff166fffffffffffffffffffffffffffffffff166fffffffffffffffffffffffffffffffff1681526020015f820160109054906101000a90046fffffffffffffffffffffffffffffffff166fffffffffffffffffffffffffffffffff166fffffffffffffffffffffffffffffffff168152602001600182015f9054906101000a900460ff161515151581525050905080602001516fffffffffffffffffffffffffffffffff16341015610ce0576040517fcd1c886700000000000000000000000000000000000000000000000000000000815260040160405180910390fd5b5f60015f815480929190600101919050555060015490506040518060e00160405280826fffffffffffffffffffffffffffffffff168152602001856fffffffffffffffffffffffffffffffff1681526020013373ffffffffffffffffffffffffffffffffffffffff168152602001346bffffffffffffffffffffffff1681526020015f6003811115610d7557610d74611e09565b5b81526020014263ffffffff1681526020015f63ffffffff1681525060025f8381526020019081526020015f205f820151815f015f6101000a8154816fffffffffffffffffffffffffffffffff02191690836fffffffffffffffffffffffffffffffff1602179055506020820151815f0160106101000a8154816fffffffffffffffffffffffffffffffff02191690836fffffffffffffffffffffffffffffffff1602179055506040820151816001015f6101000a81548173ffffffffffffffffffffffffffffffffffffffff021916908373ffffffffffffffffffffffffffffffffffffffff16021790555060608201518160010160146101000a8154816bffffffffffffffffffffffff02191690836bffffffffffffffffffffffff1602179055506080820151816002015f6101000a81548160ff02191690836003811115610ec257610ec1611e09565b5b021790555060a08201518160020160016101000a81548163ffffffff021916908363ffffffff16021790555060c08201518160020160056101000a81548163ffffffff021916908363ffffffff1602179055509050503373ffffffffffffffffffffffffffffffffffffffff1684827fc1ce86a0e426ec938654fb67e9e358f055adac37c7cf5ceb6487c16fba511dcd3442604051610f629291906123bc565b60405180910390a450505050565b5f5f9054906101000a900473ffffffffffffffffffffffffffffffffffffffff1673ffffffffffffffffffffffffffffffffffffffff163373ffffffffffffffffffffffffffffffffffffffff1614610ff5576040517f7bfa4b9f00000000000000000000000000000000000000000000000000000000815260040160405180910390fd5b825f60025f8381526020019081526020015f205f015f9054906101000a90046fffffffffffffffffffffffffffffffff166fffffffffffffffffffffffffffffffff160361106f576040517f0ef3650e00000000000000000000000000000000000000000000000000000000815260040160405180910390fd5b5f60025f8681526020019081526020015f2090505f816002015f9054906101000a900460ff169050600160038111156110ab576110aa611e09565b5b8160038111156110be576110bd611e09565b5b141580156110f057505f60038111156110da576110d9611e09565b5b8160038111156110ed576110ec611e09565b5b14155b15611127576040517f0988e48000000000000000000000000000000000000000000000000000000000815260040160405180910390fd5b5f8260010160149054906101000a90046bffffffffffffffffffffffff1690506002836002015f6101000a81548160ff0219169083600381111561116e5761116d611e09565b5b0217905550428360020160056101000a81548163ffffffff021916908363ffffffff160217905550858560035f8a81526020019081526020015f2091826111b69291906125b1565b505f5f5f9054906101000a900473ffffffffffffffffffffffffffffffffffffffff1673ffffffffffffffffffffffffffffffffffffffff16826bffffffffffffffffffffffff1660405161120a90612348565b5f6040518083038185875af1925050503d805f8114611244576040519150601f19603f3d011682016040523d82523d5f602084013e611249565b606091505b5050905080611284576040517f90b8ec1800000000000000000000000000000000000000000000000000000000815260040160405180910390fd5b836001015f9054906101000a900473ffffffffffffffffffffffffffffffffffffffff1673ffffffffffffffffffffffffffffffffffffffff16845f0160109054906101000a90046fffffffffffffffffffffffffffffffff166fffffffffffffffffffffffffffffffff16897f636794c243a9c25b97800c5c74c0ff1436bbe421691c434a9f46adcad15fe7128a8a42604051611324939291906126b8565b60405180910390a45050505050505050565b5f5f9054906101000a900473ffffffffffffffffffffffffffffffffffffffff1673ffffffffffffffffffffffffffffffffffffffff163373ffffffffffffffffffffffffffffffffffffffff16146113bb576040517f7bfa4b9f00000000000000000000000000000000000000000000000000000000815260040160405180910390fd5b5f73ffffffffffffffffffffffffffffffffffffffff168173ffffffffffffffffffffffffffffffffffffffff1603611420576040517fe6c4247b00000000000000000000000000000000000000000000000000000000815260040160405180910390fd5b805f5f6101000a81548173ffffffffffffffffffffffffffffffffffffffff021916908373ffffffffffffffffffffffffffffffffffffffff16021790555050565b5f5f9054906101000a900473ffffffffffffffffffffffffffffffffffffffff1673ffffffffffffffffffffffffffffffffffffffff163373ffffffffffffffffffffffffffffffffffffffff16146114e7576040517f7bfa4b9f00000000000000000000000000000000000000000000000000000000815260040160405180910390fd5b5f810361151f576040517ebfc92100000000000000000000000000000000000000000000000000000000815260040160405180910390fd5b60045f8381526020019081526020015f206001015f9054906101000a900460ff1615611577576040517f44886a1400000000000000000000000000000000000000000000000000000000815260040160405180910390fd5b6040518060600160405280836fffffffffffffffffffffffffffffffff168152602001826fffffffffffffffffffffffffffffffff1681526020016001151581525060045f8481526020019081526020015f205f820151815f015f6101000a8154816fffffffffffffffffffffffffffffffff02191690836fffffffffffffffffffffffffffffffff1602179055506020820151815f0160106101000a8154816fffffffffffffffffffffffffffffffff02191690836fffffffffffffffffffffffffffffffff1602179055506040820151816001015f6101000a81548160ff0219169083151502179055509050503373ffffffffffffffffffffffffffffffffffffffff16827f7aebdd5355e5ba61ced4557b448ca209eb8830e3f6835e77e4344592cbcdc82c836040516116ad9190611d04565b60405180910390a35050565b6002602052805f5260405f205f91509050805f015f9054906101000a90046fffffffffffffffffffffffffffffffff1690805f0160109054906101000a90046fffffffffffffffffffffffffffffffff1690806001015f9054906101000a900473ffffffffffffffffffffffffffffffffffffffff16908060010160149054906101000a90046bffffffffffffffffffffffff1690806002015f9054906101000a900460ff16908060020160019054906101000a900463ffffffff16908060020160059054906101000a900463ffffffff16905087565b5f5f9054906101000a900473ffffffffffffffffffffffffffffffffffffffff1673ffffffffffffffffffffffffffffffffffffffff163373ffffffffffffffffffffffffffffffffffffffff1614611815576040517f7bfa4b9f00000000000000000000000000000000000000000000000000000000815260040160405180910390fd5b8160045f8281526020019081526020015f206001015f9054906101000a900460ff1661186d576040517f090f768900000000000000000000000000000000000000000000000000000000815260040160405180910390fd5b5f82036118a5576040517ebfc92100000000000000000000000000000000000000000000000000000000815260040160405180910390fd5b8160045f8581526020019081526020015f205f0160106101000a8154816fffffffffffffffffffffffffffffffff02191690836fffffffffffffffffffffffffffffffff160217905550505050565b5f600154905090565b6004602052805f5260405f205f91509050805f015f9054906101000a90046fffffffffffffffffffffffffffffffff1690805f0160109054906101000a90046fffffffffffffffffffffffffffffffff1690806001015f9054906101000a900460ff16905083565b606060035f8381526020019081526020015f208054611983906122eb565b80601f01602080910402602001604051908101604052809291908181526020018280546119af906122eb565b80156119fa5780601f106119d1576101008083540402835291602001916119fa565b820191905f5260205f20905b8154815290600101906020018083116119dd57829003601f168201915b50505050509050919050565b5f5f9054906101000a900473ffffffffffffffffffffffffffffffffffffffff1673ffffffffffffffffffffffffffffffffffffffff163373ffffffffffffffffffffffffffffffffffffffff1614611a8b576040517f7bfa4b9f00000000000000000000000000000000000000000000000000000000815260040160405180910390fd5b8060045f8281526020019081526020015f206001015f9054906101000a900460ff16611ae3576040517f090f768900000000000000000000000000000000000000000000000000000000815260040160405180910390fd5b5f60045f8481526020019081526020015f206001015f6101000a81548160ff0219169083151502179055505050565b611b1a611ca8565b60045f8381526020019081526020015f206040518060600160405290815f82015f9054906101000a90046fffffffffffffffffffffffffffffffff166fffffffffffffffffffffffffffffffff166fffffffffffffffffffffffffffffffff1681526020015f820160109054906101000a90046fffffffffffffffffffffffffffffffff166fffffffffffffffffffffffffffffffff166fffffffffffffffffffffffffffffffff168152602001600182015f9054906101000a900460ff1615151515815250509050919050565b5f5f9054906101000a900473ffffffffffffffffffffffffffffffffffffffff1681565b6040518060e001604052805f6fffffffffffffffffffffffffffffffff1681526020015f6fffffffffffffffffffffffffffffffff1681526020015f73ffffffffffffffffffffffffffffffffffffffff1681526020015f6bffffffffffffffffffffffff1681526020015f6003811115611c8a57611c89611e09565b5b81526020015f63ffffffff1681526020015f63ffffffff1681525090565b60405180606001604052805f6fffffffffffffffffffffffffffffffff1681526020015f6fffffffffffffffffffffffffffffffff1681526020015f151581525090565b5f819050919050565b611cfe81611cec565b82525050565b5f602082019050611d175f830184611cf5565b92915050565b5f5ffd5b5f5ffd5b611d2e81611cec565b8114611d38575f5ffd5b50565b5f81359050611d4981611d25565b92915050565b5f60208284031215611d6457611d63611d1d565b5b5f611d7184828501611d3b565b91505092915050565b5f6fffffffffffffffffffffffffffffffff82169050919050565b611d9e81611d7a565b82525050565b5f73ffffffffffffffffffffffffffffffffffffffff82169050919050565b5f611dcd82611da4565b9050919050565b611ddd81611dc3565b82525050565b5f6bffffffffffffffffffffffff82169050919050565b611e0381611de3565b82525050565b7f4e487b71000000000000000000000000000000000000000000000000000000005f52602160045260245ffd5b60048110611e4757611e46611e09565b5b50565b5f819050611e5782611e36565b919050565b5f611e6682611e4a565b9050919050565b611e7681611e5c565b82525050565b5f63ffffffff82169050919050565b611e9481611e7c565b82525050565b60e082015f820151611eae5f850182611d95565b506020820151611ec16020850182611d95565b506040820151611ed46040850182611dd4565b506060820151611ee76060850182611dfa565b506080820151611efa6080850182611e6d565b5060a0820151611f0d60a0850182611e8b565b5060c0820151611f2060c0850182611e8b565b50505050565b5f81519050919050565b5f82825260208201905092915050565b8281835e5f83830152505050565b5f601f19601f8301169050919050565b5f611f6882611f26565b611f728185611f30565b9350611f82818560208601611f40565b611f8b81611f4e565b840191505092915050565b5f61010082019050611faa5f830185611e9a565b81810360e0830152611fbc8184611f5e565b90509392505050565b5f5ffd5b5f5ffd5b5f5ffd5b5f5f83601f840112611fe657611fe5611fc5565b5b8235905067ffffffffffffffff81111561200357612002611fc9565b5b60208301915083600182028301111561201f5761201e611fcd565b5b9250929050565b5f5f5f6040848603121561203d5761203c611d1d565b5b5f61204a86828701611d3b565b935050602084013567ffffffffffffffff81111561206b5761206a611d21565b5b61207786828701611fd1565b92509250509250925092565b61208c81611dc3565b8114612096575f5ffd5b50565b5f813590506120a781612083565b92915050565b5f602082840312156120c2576120c1611d1d565b5b5f6120cf84828501612099565b91505092915050565b5f5f604083850312156120ee576120ed611d1d565b5b5f6120fb85828601611d3b565b925050602061210c85828601611d3b565b9150509250929050565b61211f81611d7a565b82525050565b61212e81611dc3565b82525050565b61213d81611de3565b82525050565b61214c81611e5c565b82525050565b61215b81611e7c565b82525050565b5f60e0820190506121745f83018a612116565b6121816020830189612116565b61218e6040830188612125565b61219b6060830187612134565b6121a86080830186612143565b6121b560a0830185612152565b6121c260c0830184612152565b98975050505050505050565b5f8115159050919050565b6121e2816121ce565b82525050565b5f6060820190506121fb5f830186612116565b6122086020830185612116565b61221560408301846121d9565b949350505050565b5f6020820190508181035f8301526122358184611f5e565b905092915050565b612246816121ce565b82525050565b606082015f8201516122605f850182611d95565b5060208201516122736020850182611d95565b506040820151612286604085018261223d565b50505050565b5f60608201905061229f5f83018461224c565b92915050565b5f6020820190506122b85f830184612125565b92915050565b7f4e487b71000000000000000000000000000000000000000000000000000000005f52602260045260245ffd5b5f600282049050600182168061230257607f821691505b602082108103612315576123146122be565b5b50919050565b5f81905092915050565b50565b5f6123335f8361231b565b915061233e82612325565b5f82019050919050565b5f61235282612328565b9150819050919050565b5f819050919050565b5f61237f61237a61237584611de3565b61235c565b611cec565b9050919050565b61238f81612365565b82525050565b5f6040820190506123a85f830185612386565b6123b56020830184611cf5565b9392505050565b5f6040820190506123cf5f830185611cf5565b6123dc6020830184611cf5565b9392505050565b5f82905092915050565b7f4e487b71000000000000000000000000000000000000000000000000000000005f52604160045260245ffd5b5f819050815f5260205f209050919050565b5f6020601f8301049050919050565b5f82821b905092915050565b5f600883026124767fffffffffffffffffffffffffffffffffffffffffffffffffffffffffffffffff8261243b565b612480868361243b565b95508019841693508086168417925050509392505050565b5f6124b26124ad6124a884611cec565b61235c565b611cec565b9050919050565b5f819050919050565b6124cb83612498565b6124df6124d7826124b9565b848454612447565b825550505050565b5f5f905090565b6124f66124e7565b6125018184846124c2565b505050565b5b81811015612524576125195f826124ee565b600181019050612507565b5050565b601f8211156125695761253a8161241a565b6125438461242c565b81016020851015612552578190505b61256661255e8561242c565b830182612506565b50505b505050565b5f82821c905092915050565b5f6125895f198460080261256e565b1980831691505092915050565b5f6125a1838361257a565b9150826002028217905092915050565b6125bb83836123e3565b67ffffffffffffffff8111156125d4576125d36123ed565b5b6125de82546122eb565b6125e9828285612528565b5f601f831160018114612616575f8415612604578287013590505b61260e8582612596565b865550612675565b601f1984166126248661241a565b5f5b8281101561264b57848901358255600182019150602085019450602081019050612626565b868310156126685784890135612664601f89168261257a565b8355505b6001600288020188555050505b50505050505050565b828183375f83830152505050565b5f6126978385611f30565b93506126a483858461267e565b6126ad83611f4e565b840190509392505050565b5f6040820190508181035f8301526126d181858761268c565b90506126e06020830184611cf5565b94935050505056fea2646970667358221220464baf19cc93f9445ed90671c9c867c24edcaa3dba7a6fe033a494ab6bffd6dc64736f6c634300081c0033",
  "linkReferences": {},
  "deployedLinkReferences": {},
  "immutableReferences": {},
  "inputSourceName": "project/contracts/ComputeMarket.sol",
  "buildInfoId": "solc-0_8_28-39285799a76b12b86010fd37efaac496b0be2e47"
}